:020000040800F2
:1000000070020020CD010008D1010008D3010008D2
:10001000D5010008D7010008D90100080000000040
:10002000000000000000000000000000DB010008EC
:10003000DD01000800000000DF010008E101000808
:100040001B0200081D0200081F0200082102000810
:1000500023020008250200082702000829020008E0
:100060002B0200082D0200082F020008E3010008FF
:10007000E3010008E3010008E3010008E3010008D0
:10008000E3010008E3010008E30100084102000861
:100090004302000845020008470200084902000820
:1000A0004B0200084D0200084F02000851020008F0
:1000B00053020008550200085702000859020008C0
:1000C0005B0200085D0200085F0200086102000890
:1000D00063020008650200087D0200087F02000834
:1000E00081020008830200088502000800F002F87F
:1000F00000F03CF80AA090E8000C82448344AAF186
:100100000107DA4501D100F031F8AFF2090EBAE883
:100110000F0013F0010F18BFFB1A43F0010318473B
:10012000240C0000440C0000103A24BF78C878C1A9
:10013000FAD8520724BF30C830C144BF04680C60ED
:10014000704700000023002400250026103A28BF35
:1001500078C1FBD8520728BF30C148BF0B60704739
:100160001FB500F0DDFD1FBD10B510BD00F005FA94
:100170001146FFF7F5FF00F009F800F023FA03B489
:10018000FFF7F2FF03BC00F02DFA000000F099F831
:1001900000F08CF800F0DCF800F02EF900F076F9B1
:1001A0004FF47A7000F004F94FF47A71064800F0C9
:1001B0000CFD41F2883000F0FBF84FF496610248E4
:1001C00000F003FD00BFFEE70004004008480047C0
:1001D000FEE7FEE7FEE7FEE7FEE7FEE7FEE7FEE7F7
:1001E000FEE7FEE703480449024A044B704700005B
:1001F000ED00000870000020700200207000002058
:10020000704700BFFEE700BFFEE700BFFEE700BF8C
:10021000FEE77047704770477047704770477047F8
:100220007047704770477047704770477047704716
:100230007047704770477047704770477047704706
:1002400070477047704770477047704770477047F6
:1002500070477047704770477047704770477047E6
:100260007047704710B540F225510F4800F0D8FC98
:1002700018B10D4800F050FDC4B210BD7047704772
:1002800070477047704770477047704770477047B6
:1002900070477047704770477047704770477047A6
:1002A00070477047704770470038014010B5002113
:1002B0004FF0006000F04AFA4FF4E06000F03CFAC2
:1002C00010BD10B500F064FA4FF4803000F0F2FA7F
:1002D00000F038FB0446012C25D1102000F08AF9EB
:1002E000022000F093F9002000F0DAFA002000F07C
:1002F00005FB4FF4A06000F0F7FA4FF4E011200482
:1003000000F00CFB012000F003FB00BF392000F0DF
:10031000A7FA0028FAD0022000F00AFB00BF00F084
:10032000B7FA0828FBD101213C2000F025FA10BDC6
:10033000F8B507460C4615461E46ADF800408DF848
:1003400003608DF802506946384600F06BF9F8BD3D
:1003500010B56FF0040000F00FFB0920244908706D
:10036000084600784FF47A7148432249088010BD4E
:1003700070B505461E48007868434FF0E02148619B
:1003800000208861012000F003FB00BF4FF0E02057
:10039000046914F0010F02D014F4803FF6D06FF01E
:1003A000010000F0F5FA00204FF0E021886170BDF7
:1003B00070B505460F48008868434FF0E02148615A
:1003C00000208861012000F0E3FA00BF4FF0E02038
:1003D000046914F0010F02D014F4803FF6D06FF0DE
:1003E000010000F0D5FA00204FF0E021886170BDD7
:1003F000000000200200002000B585B00121880324
:1004000000F0AEF9012144F2010000F0B5F9042337
:10041000032219021B48FFF78BFF182303224FF416
:1004200000711848FFF784FF25208DF80000032095
:100430008DF801008DF8020001208DF80300684658
:1004400000F040F94FF4E13001900020ADF80800D1
:10045000ADF80A00ADF80C00ADF810000C20ADF8B6
:100460000E0001A9084800F013FC012240F22551BA
:10047000054800F0F4FB0121034800F0C7FB05B07C
:1004800000BD0000000801400038014000B587B001
:100490000121022000F064F918230322C021324810
:1004A000FFF746FF1823032211463048FFF740FFAD
:1004B00044F61F60ADF814002320ADF810000020B2
:1004C000ADF81600ADF8120004A9294800F080FB31
:1004D0006020ADF800000120ADF802004FF49660F6
:1004E000ADF806000020ADF808006946204800F08D
:1004F00077FA08211E4800F0A3FA0120ADF80200A7
:100500004FF49660ADF806006946194800F09EFA6F
:100510000821174800F0D8FA0120ADF802004FF486
:100520009660ADF806006946114800F0D5FA08213A
:100530000F4800F00DFB0120ADF802004FF496606B
:10054000ADF8060069460A4800F008FB0821084893
:1005500000F034FB0121064800F02CFA0121044888
:1005600000F033FA07B000BD00080140000C014064
:1005700000040040704770477047754600F028F847
:10058000AE4605006946534620F00700854618B080
:1005900020B5FFF727FEBDE820404FF000064FF0E2
:1005A00000074FF000084FF0000B21F00701AC46A8
:1005B000ACE8C009ACE8C009ACE8C009ACE8C009C7
:1005C0008D4670470446AFF300802046FFF7D7FD05
:1005D000004870470C00002001487047704700BF7A
:1005E0001000002001491820ABBEFEE726000200E3
:1005F0007047000004490A6822F010020A600A6885
:1006000002430A60704700000020024004490A6863
:1006100002F038020A600A6802430A60704700006C
:1006200000200240F0B5CB780022DC0603F00F0377
:1006300001D58C7823430C880F2714F0FF0F4FF05F
:10064000010C1CD0D0F800500E880CFA02F42640A1
:10065000A64210D1960007FA06FE25EA0E0E03FA0E
:1006600006F5CE7845EA0E05282E00D14461CE78F5
:10067000482E00D10461521C082AE5D305600A887F
:10068000FF2A1ED94568002202F108060CFA06F47A
:100690000E882640A64210D1960007FA06FE25EAEB
:1006A0000E0E03FA06F5CE7845EA0E05282E00D187
:1006B0004461CE78482E00D10461521C082AE3D34D
:1006C0004560F0BDF0B50F23C27801784FF0E0240B
:1006D000012742B3D4F80C2D467802F4E062C2F54B
:1006E000E062120AC2F10405D3408278AE401A409B
:1006F000324315018A07D20E954021F003010B19F0
:10070000D3F80064FF2191408E430D402E43C3F87F
:1007100000640078410900F01F0004EB810187406C
:10072000C1F80071F0BD01F01F008740480904EBDB
:100730008000C0F88071F0BD02490843024908609A
:10074000704700000000FA050CED00E0024A11407D
:10075000014302480160704780FFFF1F08ED00E081
:10076000044A0029D16901D0014300E08143D161ED
:100770007047000000100240044A0029916901D02E
:10078000014300E081439161704700000010024086
:100790000B48016841F0010101604168094A1140BC
:1007A00041600168084A11400160016821F480211C
:1007B00001604268002122F4FE02426081607047BD
:1007C000001002400000FFF8FFFFF6FE30B5204A9F
:1007D0005168204B11F00C0103D0042901D00829E5
:1007E00001D0036011E05168022401F4701104EBA0
:1007F00091415468184D14F4803F02D05468A4030A
:1008000001D5694300E0594301605168134B01F081
:10081000F00109095C5C0168E1404160546804F43E
:10082000E064240A1C5D21FA04F48460546804F432
:100830006054E40A1B5DD940C1605268074B02F462
:100840004042920B1B1F9A5CB1FBF2F1016130BD7B
:100850000010024000127A0000093D00320D00082D
:10086000034600205909094A012901D1116804E011
:10087000022901D1116A00E0516A03F01F0201232D
:1008800093400B4200D0012070470000001002404E
:100890000248406800F00C00704700000010024061
:1008A000034A516821F0F001014351607047000094
:1008B000001002400B490A6822F480320A600A687C
:1008C000B0F5803F22F480220A6007D0B0F5802F77
:1008D00003D1086840F4A02008607047086840F41D
:1008E0008030F9E700100240034A516821F4E061CA
:1008F000014351607047000000100240034A5168F4
:1009000021F4605141EAC00050607047001002407D
:10091000014908667047000000004242034B5A68D4
:10092000084322F47C1210435860704700100240C4
:10093000034A516821F003010143516070470000F0
:100940000010024030B50B4C40F2FF153120FFF78C
:1009500087FF20706068401C6060207810B9606874
:10096000A842F3D13120FFF77BFF002800D00120FF
:1009700030BD0000040000204FF0E0210428086989
:1009800002D140F0040001E020F00400086170474B
:100990004FF0E021012803D1086940F0010004E094
:1009A000801C04D1086920F0010008617047002014
:1009B000886170470029018802D041F0800102E07F
:1009C00040F27F321140018070470029018802D037
:1009D00041F0010102E040F2FE3211400180704717
:1009E000F0B5028C22F001020284058C8288038B10
:1009F0000C8823F070030E8925F002051C434B88F8
:100A00002E43CF880C4D33438786A84202D00B4D2E
:100A1000A8420DD14D8923F008031D4325F004069B
:100A20008B8822F4034533438E89CA892E4332438F
:100A3000828004830384F0BD002C01400034014017
:100A4000028B22F008020A430283704770B5028CC1
:100A500022F010020284028C8388048B22F0200290
:100A600024F4E0450C88164E240645EA14440D890A
:100A70002D0542EA15454A88120545EA1242CD88FD
:100A8000B042058702D00F4DA84215D14D8922F002
:100A900080022D0542EA15458A8825F04005120599
:100AA00045EA12428D89C989AD0423F40C4343EA17
:100AB0001545890445EA114383800483028470BD8F
:100AC000002C014000340140028B22F4006242EA13
:100AD000012101837047000070B5028C22F48072FE
:100AE0000284058C8388828B0C8822F070020E8928
:100AF000144325F40075320645EA12464A88CD882B
:100B0000120646EA1242104E8587B04202D00F4DBF
:100B1000A84215D122F400654A8923F43043120615
:100B200045EA124222F480658A88120645EA12429A
:100B30008D89C9892D0543EA1545090545EA114303
:100B400083808483028470BD002C01400034014006
:100B5000828B22F008020A438283704770B5028CB0
:100B600022F480520284058C8288838B25F4005500
:100B700023F4E0440B880F4E1B0644EA13430C8910
:100B8000240745EA14444D882D0744EA1545CC88CE
:100B9000B042A0F8404002D0074CA04205D189895C
:100BA000C2F30D04890544EA1142828083830584DF
:100BB00070BD0000002C014000340140828B22F403
:100BC000006242EA012181837047818770470000FB
:100BD00010B5028802F08F020280CA884B88048810
:100BE0001A43224302808A88064C012382850A88A0
:100BF000A0420285838202D0034A904201D1097A41
:100C0000018610BD002C014000340140002981897B
:100C100002D041F4005101E021F40051818170477C
:100C200070B501F01F0501260024C1F3421306FA36
:100C300005F2012B01D1838904E0022B01D1038A43
:100C400000E0838A4FEA11210088134206FA01F678
:100C500000EA060001D000B10124204670BD10B5A5
:100C6000C1F3421301F01F040121A140012B01D166
:100C70000C3004E0022B01D1103000E01430002AC7
:100C8000026801D00A4300E08A43026010BD000000
:100C900030B50446008A85B00D464CF6FF71084019
:100CA000E98801432182A0894EF6F3110840A98802
:100CB0002A8911436A8902431143A181A08A4FF610
:100CC000FF410840A9890143A1826846FFF77EFDE4
:100CD0001048844201D1039800E00298192148434A
:100CE000296864228900B0FBF1F0B0FBF2F1090140
:100CF0000B096FF018056B43322500EB830005EB01
:100D00000010B0FBF2F000F00F000843208105B0A6
:100D100030BD0000003801408088C0F308007047F3
:100D200010B5FFF759FC4FF00001016010BD02043F
:100D30000608000000000102030401020304060784
:100D400008090000640D0008000000200C000000ED
:100D500028010008700D00080C000020640200004B
:100D60004401000800000000000000000000000036
:04000005080001CD21
:00000001FF
